:100000000C9439000C944B000C944B000C944B0056
:100010000C944B000C944B000C944B000C944B0034
:100020000C944B000C945F000C944B000C944B0010
:100030000C944B000C944B000C944B000C944B0014
:100040000C944B000C944B000C944B000C944B0004
:100050000C944B00AA00AE00B200B600BA00BE007D
:10006000C200C600CA00CE00D200D600DA00DE0010
:10007000E20011241FBECFE5D4E0DEBFCDBF20E0FB
:10008000A0E6B0E001C01D92A336B207E1F70E94DE
:100090008F000C94EE000C94000081E080936000CF
:1000A0000895809160008F5F803119F08093600027
:1000B00008951092600008958091600008951F9245
:1000C0000F920FB60F9211242F933F934F935F938C
:1000D0006F937F938F939F93AF93BF93EF93FF9310
:1000E000809161008F5F8A3719F08093610004C0AE
:1000F000109261000E94510081E982BFFF91EF914F
:10010000BF91AF919F918F917F916F915F914F912F
:100110003F912F910F900FBE0F901F90189584E084
:1001200083BF89B7816089BF78940E944D00109287
:10013000610081E0809362000E945C008093620015
:1001400090E0FC013197EF30F105B0F7E65DFF4F2D
:100150000C94E80080E80E94E600EECF80EC0E945C
:10016000E600EACF80EE0E94E600E6CF80EF0E9434
:10017000E600E2CF88EF0E94E600DECF8CEF0E941F
:10018000E600DACF8EEF0E94E600D6CF8FEF0E9416
:10019000E600D2CF8FE70E94E600CECF8FE30E9429
:1001A000E600CACF8FE10E94E600C6CF8FE00E9432
:1001B000E600C2CF87E00E94E600BECF83E00E9447
:1001C000E600BACF81E00E94E600B6CF88BB089572
:1001D000EE0FFF1F0590F491E02D0994F894FFCFE6
:00000001FF
