
Lauflicht.elf:     file format elf32-avr

Sections:
Idx Name          Size      VMA       LMA       File off  Algn
  0 .text         000001e0  00000000  00000000  00000094  2**1
                  CONTENTS, ALLOC, LOAD, READONLY, CODE
  1 .data         00000000  00800060  000001e0  00000274  2**0
                  CONTENTS, ALLOC, LOAD, DATA
  2 .bss          00000003  00800060  00800060  00000274  2**0
                  ALLOC
  3 .comment      00000030  00000000  00000000  00000274  2**0
                  CONTENTS, READONLY
  4 .debug_aranges 000000a0  00000000  00000000  000002a4  2**0
                  CONTENTS, READONLY, DEBUGGING
  5 .debug_info   000004da  00000000  00000000  00000344  2**0
                  CONTENTS, READONLY, DEBUGGING
  6 .debug_abbrev 0000025e  00000000  00000000  0000081e  2**0
                  CONTENTS, READONLY, DEBUGGING
  7 .debug_line   00000293  00000000  00000000  00000a7c  2**0
                  CONTENTS, READONLY, DEBUGGING
  8 .debug_frame  00000134  00000000  00000000  00000d10  2**2
                  CONTENTS, READONLY, DEBUGGING
  9 .debug_str    000001c7  00000000  00000000  00000e44  2**0
                  CONTENTS, READONLY, DEBUGGING
 10 .debug_loc    00000181  00000000  00000000  0000100b  2**0
                  CONTENTS, READONLY, DEBUGGING
 11 .debug_ranges 00000070  00000000  00000000  0000118c  2**0
                  CONTENTS, READONLY, DEBUGGING

Disassembly of section .text:

00000000 <__vectors>:
   0:	0c 94 39 00 	jmp	0x72	; 0x72 <__ctors_end>
   4:	0c 94 4b 00 	jmp	0x96	; 0x96 <__bad_interrupt>
   8:	0c 94 4b 00 	jmp	0x96	; 0x96 <__bad_interrupt>
   c:	0c 94 4b 00 	jmp	0x96	; 0x96 <__bad_interrupt>
  10:	0c 94 4b 00 	jmp	0x96	; 0x96 <__bad_interrupt>
  14:	0c 94 4b 00 	jmp	0x96	; 0x96 <__bad_interrupt>
  18:	0c 94 4b 00 	jmp	0x96	; 0x96 <__bad_interrupt>
  1c:	0c 94 4b 00 	jmp	0x96	; 0x96 <__bad_interrupt>
  20:	0c 94 4b 00 	jmp	0x96	; 0x96 <__bad_interrupt>
  24:	0c 94 5f 00 	jmp	0xbe	; 0xbe <__vector_9>
  28:	0c 94 4b 00 	jmp	0x96	; 0x96 <__bad_interrupt>
  2c:	0c 94 4b 00 	jmp	0x96	; 0x96 <__bad_interrupt>
  30:	0c 94 4b 00 	jmp	0x96	; 0x96 <__bad_interrupt>
  34:	0c 94 4b 00 	jmp	0x96	; 0x96 <__bad_interrupt>
  38:	0c 94 4b 00 	jmp	0x96	; 0x96 <__bad_interrupt>
  3c:	0c 94 4b 00 	jmp	0x96	; 0x96 <__bad_interrupt>
  40:	0c 94 4b 00 	jmp	0x96	; 0x96 <__bad_interrupt>
  44:	0c 94 4b 00 	jmp	0x96	; 0x96 <__bad_interrupt>
  48:	0c 94 4b 00 	jmp	0x96	; 0x96 <__bad_interrupt>
  4c:	0c 94 4b 00 	jmp	0x96	; 0x96 <__bad_interrupt>
  50:	0c 94 4b 00 	jmp	0x96	; 0x96 <__bad_interrupt>
  54:	aa 00       	.word	0x00aa	; ????
  56:	ae 00       	.word	0x00ae	; ????
  58:	b2 00       	.word	0x00b2	; ????
  5a:	b6 00       	.word	0x00b6	; ????
  5c:	ba 00       	.word	0x00ba	; ????
  5e:	be 00       	.word	0x00be	; ????
  60:	c2 00       	.word	0x00c2	; ????
  62:	c6 00       	.word	0x00c6	; ????
  64:	ca 00       	.word	0x00ca	; ????
  66:	ce 00       	.word	0x00ce	; ????
  68:	d2 00       	.word	0x00d2	; ????
  6a:	d6 00       	.word	0x00d6	; ????
  6c:	da 00       	.word	0x00da	; ????
  6e:	de 00       	.word	0x00de	; ????
  70:	e2 00       	.word	0x00e2	; ????

00000072 <__ctors_end>:
  72:	11 24       	eor	r1, r1
  74:	1f be       	out	0x3f, r1	; 63
  76:	cf e5       	ldi	r28, 0x5F	; 95
  78:	d4 e0       	ldi	r29, 0x04	; 4
  7a:	de bf       	out	0x3e, r29	; 62
  7c:	cd bf       	out	0x3d, r28	; 61

0000007e <__do_clear_bss>:
  7e:	20 e0       	ldi	r18, 0x00	; 0
  80:	a0 e6       	ldi	r26, 0x60	; 96
  82:	b0 e0       	ldi	r27, 0x00	; 0
  84:	01 c0       	rjmp	.+2      	; 0x88 <.do_clear_bss_start>

00000086 <.do_clear_bss_loop>:
  86:	1d 92       	st	X+, r1

00000088 <.do_clear_bss_start>:
  88:	a3 36       	cpi	r26, 0x63	; 99
  8a:	b2 07       	cpc	r27, r18
  8c:	e1 f7       	brne	.-8      	; 0x86 <.do_clear_bss_loop>
  8e:	0e 94 8f 00 	call	0x11e	; 0x11e <main>
  92:	0c 94 ee 00 	jmp	0x1dc	; 0x1dc <_exit>

00000096 <__bad_interrupt>:
  96:	0c 94 00 00 	jmp	0	; 0x0 <__vectors>

0000009a <CntInit>:

static uint8_t counter;

void CntInit()
{
	counter = 1;
  9a:	81 e0       	ldi	r24, 0x01	; 1
  9c:	80 93 60 00 	sts	0x0060, r24
  a0:	08 95       	ret

000000a2 <CntInkrement>:
}

void CntInkrement()
{
	counter++;
  a2:	80 91 60 00 	lds	r24, 0x0060
  a6:	8f 5f       	subi	r24, 0xFF	; 255
	if (counter == 16)
  a8:	80 31       	cpi	r24, 0x10	; 16
  aa:	19 f0       	breq	.+6      	; 0xb2 <CntInkrement+0x10>
	counter = 1;
}

void CntInkrement()
{
	counter++;
  ac:	80 93 60 00 	sts	0x0060, r24
  b0:	08 95       	ret
	if (counter == 16)
	counter = 0;
  b2:	10 92 60 00 	sts	0x0060, r1
  b6:	08 95       	ret

000000b8 <CntGetValue>:
}

uint8_t CntGetValue()
{
	return counter;
  b8:	80 91 60 00 	lds	r24, 0x0060
  bc:	08 95       	ret

000000be <__vector_9>:
  /* Interrupt Aktion alle
  (8000000/256)/256 Hz = 122,0703125 Hz
  bzw.
  1/122,0703125 s = 8,192 ms  
  */
{
  be:	1f 92       	push	r1
  c0:	0f 92       	push	r0
  c2:	0f b6       	in	r0, 0x3f	; 63
  c4:	0f 92       	push	r0
  c6:	11 24       	eor	r1, r1
  c8:	2f 93       	push	r18
  ca:	3f 93       	push	r19
  cc:	4f 93       	push	r20
  ce:	5f 93       	push	r21
  d0:	6f 93       	push	r22
  d2:	7f 93       	push	r23
  d4:	8f 93       	push	r24
  d6:	9f 93       	push	r25
  d8:	af 93       	push	r26
  da:	bf 93       	push	r27
  dc:	ef 93       	push	r30
  de:	ff 93       	push	r31
	timer++;
  e0:	80 91 61 00 	lds	r24, 0x0061
  e4:	8f 5f       	subi	r24, 0xFF	; 255
	if (timer == 122)
  e6:	8a 37       	cpi	r24, 0x7A	; 122
  e8:	19 f0       	breq	.+6      	; 0xf0 <__vector_9+0x32>
  (8000000/256)/256 Hz = 122,0703125 Hz
  bzw.
  1/122,0703125 s = 8,192 ms  
  */
{
	timer++;
  ea:	80 93 61 00 	sts	0x0061, r24
  ee:	04 c0       	rjmp	.+8      	; 0xf8 <__vector_9+0x3a>
	if (timer == 122)
	{
		timer = 0;
  f0:	10 92 61 00 	sts	0x0061, r1
		CntInkrement();
  f4:	0e 94 51 00 	call	0xa2	; 0xa2 <CntInkrement>
	}
	TCNT0 = TIMER_0_CNT;  // reset counter
  f8:	81 e9       	ldi	r24, 0x91	; 145
  fa:	82 bf       	out	0x32, r24	; 50
	       
}
  fc:	ff 91       	pop	r31
  fe:	ef 91       	pop	r30
 100:	bf 91       	pop	r27
 102:	af 91       	pop	r26
 104:	9f 91       	pop	r25
 106:	8f 91       	pop	r24
 108:	7f 91       	pop	r23
 10a:	6f 91       	pop	r22
 10c:	5f 91       	pop	r21
 10e:	4f 91       	pop	r20
 110:	3f 91       	pop	r19
 112:	2f 91       	pop	r18
 114:	0f 90       	pop	r0
 116:	0f be       	out	0x3f, r0	; 63
 118:	0f 90       	pop	r0
 11a:	1f 90       	pop	r1
 11c:	18 95       	reti

0000011e <main>:

int main(void)
{
	// Timer 0 konfigurieren
	TCCR0 = (1<<CS02); // Prescaler 256
 11e:	84 e0       	ldi	r24, 0x04	; 4
 120:	83 bf       	out	0x33, r24	; 51
 
	// Overflow Interrupt erlauben
	TIMSK |= (1<<TOIE0);
 122:	89 b7       	in	r24, 0x39	; 57
 124:	81 60       	ori	r24, 0x01	; 1
 126:	89 bf       	out	0x39, r24	; 57
 
	// Global Interrupts aktivieren
	sei();
 128:	78 94       	sei
	
	CntInit();
 12a:	0e 94 4d 00 	call	0x9a	; 0x9a <CntInit>
	timer = 0;
 12e:	10 92 61 00 	sts	0x0061, r1
	
	counter = 1;
 132:	81 e0       	ldi	r24, 0x01	; 1
 134:	80 93 62 00 	sts	0x0062, r24
		bytes[11]=0x0F;
		bytes[12]=0x07;
		bytes[13]=0x03;
		bytes[14]=0x01;
		
		counter = CntGetValue();
 138:	0e 94 5c 00 	call	0xb8	; 0xb8 <CntGetValue>
 13c:	80 93 62 00 	sts	0x0062, r24
		
		switch (counter)
 140:	90 e0       	ldi	r25, 0x00	; 0
 142:	fc 01       	movw	r30, r24
 144:	31 97       	sbiw	r30, 0x01	; 1
 146:	ef 30       	cpi	r30, 0x0F	; 15
 148:	f1 05       	cpc	r31, r1
 14a:	b0 f7       	brcc	.-20     	; 0x138 <main+0x1a>
 14c:	e6 5d       	subi	r30, 0xD6	; 214
 14e:	ff 4f       	sbci	r31, 0xFF	; 255
 150:	0c 94 e8 00 	jmp	0x1d0	; 0x1d0 <__tablejump2__>
		{
		case 1:
			LedSet(bytes[0]);
 154:	80 e8       	ldi	r24, 0x80	; 128
 156:	0e 94 e6 00 	call	0x1cc	; 0x1cc <LedSet>
			break;
 15a:	ee cf       	rjmp	.-36     	; 0x138 <main+0x1a>
			
		case 2:
			LedSet(bytes[1]);
 15c:	80 ec       	ldi	r24, 0xC0	; 192
 15e:	0e 94 e6 00 	call	0x1cc	; 0x1cc <LedSet>
			break;
 162:	ea cf       	rjmp	.-44     	; 0x138 <main+0x1a>
			
		case 3:
			LedSet(bytes[2]);
 164:	80 ee       	ldi	r24, 0xE0	; 224
 166:	0e 94 e6 00 	call	0x1cc	; 0x1cc <LedSet>
			break;
 16a:	e6 cf       	rjmp	.-52     	; 0x138 <main+0x1a>
		
		case 4:
			LedSet(bytes[3]);
 16c:	80 ef       	ldi	r24, 0xF0	; 240
 16e:	0e 94 e6 00 	call	0x1cc	; 0x1cc <LedSet>
			break;
 172:	e2 cf       	rjmp	.-60     	; 0x138 <main+0x1a>
		
		case 5:
			LedSet(bytes[4]);
 174:	88 ef       	ldi	r24, 0xF8	; 248
 176:	0e 94 e6 00 	call	0x1cc	; 0x1cc <LedSet>
			break;
 17a:	de cf       	rjmp	.-68     	; 0x138 <main+0x1a>
		
		case 6:
			LedSet(bytes[5]);
 17c:	8c ef       	ldi	r24, 0xFC	; 252
 17e:	0e 94 e6 00 	call	0x1cc	; 0x1cc <LedSet>
			break;
 182:	da cf       	rjmp	.-76     	; 0x138 <main+0x1a>
		
		case 7:
			LedSet(bytes[6]);
 184:	8e ef       	ldi	r24, 0xFE	; 254
 186:	0e 94 e6 00 	call	0x1cc	; 0x1cc <LedSet>
			break;
 18a:	d6 cf       	rjmp	.-84     	; 0x138 <main+0x1a>
		
		case 8:
			LedSet(bytes[7]);
 18c:	8f ef       	ldi	r24, 0xFF	; 255
 18e:	0e 94 e6 00 	call	0x1cc	; 0x1cc <LedSet>
			break;
 192:	d2 cf       	rjmp	.-92     	; 0x138 <main+0x1a>
		
		case 9:
			LedSet(bytes[8]);
 194:	8f e7       	ldi	r24, 0x7F	; 127
 196:	0e 94 e6 00 	call	0x1cc	; 0x1cc <LedSet>
			break;
 19a:	ce cf       	rjmp	.-100    	; 0x138 <main+0x1a>
		
		case 10:
			LedSet(bytes[9]);
 19c:	8f e3       	ldi	r24, 0x3F	; 63
 19e:	0e 94 e6 00 	call	0x1cc	; 0x1cc <LedSet>
			break;
 1a2:	ca cf       	rjmp	.-108    	; 0x138 <main+0x1a>
		
		case 11:
			LedSet(bytes[10]);
 1a4:	8f e1       	ldi	r24, 0x1F	; 31
 1a6:	0e 94 e6 00 	call	0x1cc	; 0x1cc <LedSet>
			break;
 1aa:	c6 cf       	rjmp	.-116    	; 0x138 <main+0x1a>
		
		case 12:
			LedSet(bytes[11]);
 1ac:	8f e0       	ldi	r24, 0x0F	; 15
 1ae:	0e 94 e6 00 	call	0x1cc	; 0x1cc <LedSet>
			break;
 1b2:	c2 cf       	rjmp	.-124    	; 0x138 <main+0x1a>
		
		case 13:
			LedSet(bytes[12]);
 1b4:	87 e0       	ldi	r24, 0x07	; 7
 1b6:	0e 94 e6 00 	call	0x1cc	; 0x1cc <LedSet>
			break;
 1ba:	be cf       	rjmp	.-132    	; 0x138 <main+0x1a>
		
		case 14:
			LedSet(bytes[13]);
 1bc:	83 e0       	ldi	r24, 0x03	; 3
 1be:	0e 94 e6 00 	call	0x1cc	; 0x1cc <LedSet>
			break;
 1c2:	ba cf       	rjmp	.-140    	; 0x138 <main+0x1a>
		
		case 15:
			LedSet(bytes[14]);
 1c4:	81 e0       	ldi	r24, 0x01	; 1
 1c6:	0e 94 e6 00 	call	0x1cc	; 0x1cc <LedSet>
			break;
 1ca:	b6 cf       	rjmp	.-148    	; 0x138 <main+0x1a>

000001cc <LedSet>:
{
	PORTB ^= (1<<lednr);
}
void LedSet(uint8_t zustand)
{
	PORTB = zustand;
 1cc:	88 bb       	out	0x18, r24	; 24
 1ce:	08 95       	ret

000001d0 <__tablejump2__>:
 1d0:	ee 0f       	add	r30, r30
 1d2:	ff 1f       	adc	r31, r31

000001d4 <__tablejump__>:
 1d4:	05 90       	lpm	r0, Z+
 1d6:	f4 91       	lpm	r31, Z
 1d8:	e0 2d       	mov	r30, r0
 1da:	09 94       	ijmp

000001dc <_exit>:
 1dc:	f8 94       	cli

000001de <__stop_program>:
 1de:	ff cf       	rjmp	.-2      	; 0x1de <__stop_program>
